:100000000EC015C014C013C012C011C010C00FC064
:100010000EC00DC00CC00BC00AC009C008C011241E
:100020001FBECFE5D2E0DEBFCDBF02D052C0E8CFC9
:10003000B89AB99ABA9ABB9ABC9A51E042E034E0B5
:1000400028E090E188B3852788BB69E979E981E0F8
:10005000615070408040E1F7000088B3852788BB7D
:1000600088B3842788BB69E979E981E061507040F1
:100070008040E1F7000088B3842788BB88B38327DA
:1000800088BB69E979E981E0615070408040E1F71F
:10009000000088B3832788BB88B3822788BB69E9BF
:1000A00079E981E0615070408040E1F7000088B359
:1000B000822788BB88B3892788BB69E979E981E011
:1000C000615070408040E1F7000088B3892788BB09
:0600D000B9CFF894FFCF48
:00000001FF
