:100000000EC01DC01CC01BC01AC019C018C017C02C
:1000100016C015C014C013C012C011C010C01124E6
:100020001FBECFE5D2E0DEBFCDBF20E0A0E6B0E04E
:1000300001C01D92A136B207E1F702D0CFC0E0CFD8
:1000400090E080E0B5D081708093600004B600FE3F
:100050000AC081E084BF60916000682760936000FF
:1000600090E080E0ADD0B89AB99ABA9ABB9ABC9A9F
:1000700061E032E024E098E080E15091600048B314
:10008000513009F04BC0482748BB4FEF74E3ECE018
:1000900041507040E040E1F700C0000048B34827FD
:1000A00048BB48B3492748BB4FEF74E3ECE04150ED
:1000B0007040E040E1F700C0000048B3492748BB6A
:1000C00048B3422748BB4FEF74E3ECE04150704027
:1000D000E040E1F700C0000048B3422748BB48B306
:1000E000432748BB4FEF74E3ECE041507040E040E1
:1000F000E1F700C0000048B3432748BB48B3452799
:1001000048BB4FEF74E3ECE041507040E040E1F752
:1001100000C0000048B3452748BBAFCF462748BBC7
:100120004FEF54E37CE0415050407040E1F700C095
:10013000000048B3462748BB48B3432748BBEFEF0E
:1001400044E35CE0E15040405040E1F700C0000073
:1001500048B3432748BB48B3422748BB7FEFE4E39B
:100160004CE07150E0404040E1F700C0000048B36F
:10017000422748BB48B3492748BB5FEF74E3ECE034
:1001800051507040E040E1F700C0000048B34927FB
:1001900048BB48B3482748BB4FEF54E37CE041508D
:1001A00050407040E1F700C0000048B34827B4CF8A
:1001B000E199FECF9FBB8EBBE09A99278DB308953E
:1001C000262FE199FECF1CBA9FBB8EBB2DBB0FB66D
:1001D000F894E29AE19A0FBE01960895F894FFCF41
:00000001FF
