:100000000EC01DC01CC01BC01AC019C018C017C02C
:1000100016C015C014C013C012C011C010C01124E6
:100020001FBECFE5D2E0DEBFCDBF20E0A0E6B0E04E
:1000300001C01D92A136B207E1F702D0D0C0E0CFD7
:1000400080E090E0B6D081708093600004B600FE3E
:100050000AC081E084BF60916000682760936000FF
:1000600080E090E0AED0B89AB99ABA9ABB9ABC9A9E
:1000700061E042E034E028E090E18091600081306E
:1000800009F04BC058B3592758BB5FEF74E3ECE05D
:1000900051507040E040E1F700C0000058B35927CC
:1000A00058BB58B3522758BB5FEF74E3ECE0515094
:1000B0007040E040E1F700C0000058B3522758BB41
:1000C00058B3532758BB5FEF74E3ECE051507040D6
:1000D000E040E1F700C0000058B3532758BB58B3C5
:1000E000542758BB5FEF74E3ECE051507040E040A0
:1000F000E1F700C0000058B3542758BB58B3582745
:1001000058BB5FEF74E3ECE051507040E040E1F722
:1001100000C0000058B385274AC088B3862788BB33
:100120005FEF74E38CE0515070408040E1F700C015
:10013000000088B3862788BB88B3842788BBEFEF8D
:1001400054E37CE0E15050407040E1F700C0000013
:1001500088B3842788BB88B3832788BB8FEFE4E309
:100160005CE08150E0405040E1F700C0000088B3FF
:10017000832788BB88B3822788BB7FEF84E3ECE0CA
:1001800071508040E040E1F700C0000088B3822752
:1001900088BB88B3892788BB5FEF74E38CE051503C
:1001A00070408040E1F700C0000088B3892788BB19
:1001B00064CFE199FECF9FBB8EBBE09A99278DB3A8
:1001C0000895262FE199FECF1CBA9FBB8EBB2DBB95
:1001D0000FB6F894E29AE19A0FBE01960895F8944A
:0201E000FFCF4F
:00000001FF
